:020000040800F2
:1000000000C0002061540008293300083133000883
:100010003333000835330008373300080000000090
:10002000000000000000000000000000393300085C
:100030003B330008000000003D3300083F33000858
:10004000A9540008A9540008A9540008A95400089C
:10005000A9540008A9540008A9540008A95400088C
:10006000A9540008A9540008A9540008A95400087C
:10007000A9540008A9540008A9540008A95400086C
:10008000A9540008A9540008A9540008A95400085C
:10009000A9540008A9540008A9540008A95400084C
:1000A000A9540008A9540008A9540008A95400083C
:1000B000A9540008A95400087D2D0008A95400087F
:1000C000A9540008A9540008A9540008A95400081C
:1000D000A9540008A9540008A9540008A95400080C
:1000E000A9540008A9540008A9540008A9540008FC
:1000F000A9540008A9540008A9540008A9540008EC
:10010000A9540008A9540008A9540008A9540008DB
:10011000A9540008A9540008A9540008A9540008CB
:10012000A9540008A9540008A9540008A9540008BB
:1001300000000000000000000000000000000000BF
:1001400000000000000000000000000000000000AF
:10015000000000000000000000000000000000009F
:10016000000000000000000000000000000000008F
:10017000000000000000000000000000000000007F
:10018000000000000000000000000000000000006F
:10019000000000000000000000000000000000005F
:1001A000000000000000000000000000000000004F
:1001B000000000000000000000000000000000003F
:1001C000000000000000000000000000000000002F
:1001D000000000000000000000000000000000001F
:0401E0005FF8E0F1F3
:1001E80010B5054C237833B9044B13B10448AFF369
:1001F80000800123237010BD381200200000000089
:10020800D4B6000808B5034B1BB103490348AFF344
:10021800008008BD000000003C120020D4B6000891
:10022800844641EA000313F0030349D1403A23D33B
:100238000B6803604B6843608B688360CB68C3605E
:100248000B6903614B6943618B698361CB69C36146
:100258000B6A03624B6A43628B6A8362CB6AC3622E
:100268000B6B03634B6B43638B6B8363CB6BC36316
:1002780040304031403ADBD230320BD30B68036058
:100288004B6843608B688360CB68C3601030103163
:10029800103AF3D20C3205D351F8043B40F8043B32
:1002A800043AF9D2043208D0D2071CBF11F8013B36
:1002B80000F8013B01D30B8803806046704700BFFC
:1002C800082A13D38B07B1D010F00303AED0C3F1C3
:1002D8000403D21ADB071CBF11F8013B00F8013BED
:1002E800A4D331F8023B20F8023B9FE7043AD9D364
:1002F800013A11F8013B00F8013BF9D20B78037081
:100308004B7843708B7883706046704781F000416A
:1003180002E000BF83F0004330B54FEA41044FEAE2
:10032800430594EA050F08BF90EA020F1FBF54EA7D
:10033800000C55EA020C7FEA645C7FEA655C00F019
:10034800E2804FEA5454D4EB5555B8BF6D420CDDEA
:100358002C4480EA020281EA030382EA000083EA6D
:10036800010180EA020281EA0303362D88BF30BD0D
:1003780011F0004F4FEA01314FF4801C4CEA113163
:1003880002D0404261EB410113F0004F4FEA0333C2
:100398004CEA133302D0524263EB430394EA050F4D
:1003A80000F0A780A4F10104D5F1200E0DDB02FABC
:1003B8000EFC22FA05F2801841F1000103FA0EF250
:1003C800801843FA05F359410EE0A5F120050EF116
:1003D800200E012A03FA0EFC28BF4CF0020C43FA47
:1003E80005F3C01851EBE37101F0004507D54FF054
:1003F800000EDCF1000C7EEB00006EEB0101B1F5A4
:10040800801F1BD3B1F5001F0CD349085FEA3000E9
:100418004FEA3C0C04F101044FEA445212F5800FF4
:1004280080F09A80BCF1004F08BF5FEA500C50F191
:10043800000041EB045141EA050130BD5FEA4C0C74
:10044800404141EB0101013C28BFB1F5801FE9D2D1
:1004580091F0000F04BF01460020B1FA81F308BFF4
:100468002033A3F10B03B3F120020CDA0C3208DDC0
:1004780002F1140CC2F10C0201FA0CF021FA02F19B
:100488000CE002F11402D8BFC2F1200C01FA02F10B
:1004980020FA0CFCDCBF41EA0C019040E41AA2BF30
:1004A80001EB0451294330BD6FEA04041F3C1CDAF8
:1004B8000C340EDC04F11404C4F1200220FA04F018
:1004C80001FA02F340EA030021FA04F345EA0301C2
:1004D80030BDC4F10C04C4F1200220FA02F001FA84
:1004E80004F340EA0300294630BD21FA04F0294606
:1004F80030BD94F0000F83F4801306BF81F480119F
:100508000134013D4EE77FEA645C18BF7FEA655C11
:1005180029D094EA050F08BF90EA020F05D054EAE3
:10052800000C04BF1946104630BD91EA030F1EBFE8
:100538000021002030BD5FEA545C05D140004941EC
:1005480028BF41F0004130BD14F580043CBF01F5DF
:10055800801130BD01F0004545F0FE4141F47001C5
:100568004FF0000030BD7FEA645C1ABF19461046A0
:100578007FEA655C1CBF0B46024650EA013406BFA1
:1005880052EA033591EA030F41F4002130BD00BF60
:1005980090F0000F04BF0021704730B54FF480641D
:1005A80004F132044FF000054FF0000150E700BF9E
:1005B80090F0000F04BF0021704730B54FF48064FD
:1005C80004F1320410F0004548BF40424FF00001EA
:1005D8003EE700BF42004FEAE2014FEA31014FEA2D
:1005E80002701FBF12F07F4393F07F4F81F060517C
:1005F800704732F07F4208BF704793F07F4F04BFC7
:1006080041F40021704730B54FF4607401F00045A3
:1006180021F000411CE700BF50EA010208BF704703
:1006280030B54FF000050AE050EA010208BF7047F4
:1006380030B511F0004502D5404261EB41014FF45D
:10064800806404F132045FEA915C3FF4D8AE4FF065
:1006580003025FEADC0C18BF03325FEADC0C18BF48
:10066800033202EBDC02C2F1200300FA03FC20FA99
:1006780002F001FA03FE40EA0E0021FA02F11444E6
:10068800BDE600BF70B54FF0FF0C4CF4E06C1CEAFF
:1006980011541DBF1CEA135594EA0C0F95EA0C0F70
:1006A80000F0DEF82C4481EA030621EA4C5123EAE3
:1006B8004C5350EA013518BF52EA033541F4801112
:1006C80043F4801338D0A0FB02CE4FF00005E1FBC5
:1006D80002E506F00042E0FB03E54FF00006E1FB0F
:1006E80003569CF0000F18BF4EF0010EA4F1FF0452
:1006F800B6F5007F64F5407404D25FEA4E0E6D4192
:1007080046EB060642EAC62141EA55514FEAC520A2
:1007180040EA5E504FEACE2EB4F1FD0C88BFBCF51E
:10072800E06F1ED8BEF1004F08BF5FEA500E50F1CF
:10073800000041EB045170BD06F0004646EA010195
:1007480040EA020081EA0301B4EB5C04C2BFD4EBC7
:100758000C0541EA045170BD41F480114FF0000EC0
:10076800013C00F3AB8014F1360FDEBF002001F02E
:10077800004170BDC4F10004203C35DA0C341BDCA8
:1007880004F11404C4F1200500FA05F320FA04F07A
:1007980001FA05F240EA020001F0004221F00041AE
:1007A80010EBD37021FA04F642EB06015EEA430E21
:1007B80008BF20EAD37070BDC4F10C04C4F1200551
:1007C80000FA04F320FA05F001FA04F240EA020004
:1007D80001F0004110EBD37041F100015EEA430ED5
:1007E80008BF20EAD37070BDC4F1200500FA05F2F5
:1007F8004EEA020E20FA04F301FA05F243EA020374
:1008080021FA04F001F0004121FA04F220EA020082
:1008180000EBD3705EEA430E08BF20EAD37070BDC8
:1008280094F0000F0FD101F00046400041EB0101A8
:1008380011F4801F08BF013CF7D041EA060195F08A
:10084800000F18BF704703F00046520043EB030344
:1008580013F4801F08BF013DF7D043EA0603704731
:1008680094EA0C0F0CEA135518BF95EA0C0F0CD03C
:1008780050EA410618BF52EA4306D1D181EA030182
:1008880001F000414FF0000070BD50EA410606BF7C
:100898001046194652EA430619D094EA0C0F02D1C1
:1008A80050EA013613D195EA0C0F05D152EA033606
:1008B8001CBF104619460AD181EA030101F0004124
:1008C80041F0FE4141F470014FF0000070BD41F06D
:1008D800FE4141F4780170BD70B54FF0FF0C4CF447
:1008E800E06C1CEA11541DBF1CEA135594EA0C0F66
:1008F80095EA0C0F00F0A7F8A4EB050481EA030EB3
:1009080052EA03354FEA013100F088804FEA033399
:100918004FF0805545EA131343EA12634FEA022267
:1009280045EA111545EA10654FEA00260EF0004128
:100938009D4208BF964244F1FD0404F5407402D27A
:100948005B084FEA3202B61A65EB03055B084FEA0B
:1009580032024FF480104FF4002CB6EB020E75EB08
:10096800030E22BFB61A754640EA0C005B084FEA30
:100978003202B6EB020E75EB030E22BFB61A7546AD
:1009880040EA5C005B084FEA3202B6EB020E75EBF8
:10099800030E22BFB61A754640EA9C005B084FEA70
:1009A8003202B6EB020E75EB030E22BFB61A75467D
:1009B80040EADC0055EA060E18D04FEA051545EA6C
:1009C80016754FEA06164FEAC30343EA52734FEA15
:1009D800C2025FEA1C1CC0D111F4801F0BD141EA8E
:1009E80000014FF000004FF0004CB6E711F4801FF3
:1009F80004BF01430020B4F1FD0C88BFBCF5E06FD3
:100A08003FF6AFAEB5EB030C04BFB6EB020C5FEAE2
:100A1800500C50F1000041EB045170BD0EF0004E37
:100A28004EEA113114EB5C04C2BFD4EB0C0541EA69
:100A3800045170BD41F480114FF0000E013C90E666
:100A480045EA060E8DE60CEA135594EA0C0F08BF2A
:100A580095EA0C0F3FF43BAF94EA0C0F0AD150EA29
:100A680001347FF434AF95EA0C0F7FF425AF1046BC
:100A780019462CE795EA0C0F06D152EA03353FF4E4
:100A8800FDAE1046194622E750EA410618BF52EA61
:100A980043067FF4C5AE50EA41047FF40DAF52EA35
:100AA80043057FF4EBAE12E74FF0FF3C06E000BFD2
:100AB8004FF0010C02E000BF4FF0010C4DF804CDDF
:100AC8004FEA410C7FEA6C5C4FEA430C18BF7FEA9F
:100AD8006C5C1BD001B050EA410C0CBF52EA430CCD
:100AE80091EA030F02BF90EA020F0020704710F14D
:100AF800000F91EA030F58BF994208BF90422CBFDC
:100B0800D8176FEAE37040F0010070474FEA410CD4
:100B18007FEA6C5C02D150EA013C07D14FEA430CF2
:100B28007FEA6C5CD6D152EA033CD3D05DF8040B63
:100B3800704700BF8446104662468C461946634695
:100B480000E000BF01B5FFF7B7FF002848BF10F16C
:100B5800000F01BD4DF808EDFFF7F4FF0CBF0120B1
:100B680000205DF808FB00BF4DF808EDFFF7EAFF2D
:100B780034BF012000205DF808FB00BF4DF808EDE8
:100B8800FFF7E0FF94BF012000205DF808FB00BFDD
:100B98004DF808EDFFF7CEFF94BF012000205DF867
:100BA80008FB00BF4DF808EDFFF7C4FF34BF012074
:100BB80000205DF808FB00BF4FEA410C7FEA6C5C3F
:100BC80002D150EA013C0AD14FEA430C7FEA6C5C3F
:100BD80002D152EA033C02D14FF0000070474FF0B7
:100BE800010070474FEA410212F5001215D211D5E3
:100BF8006FF47873B3EB625212D94FEAC12343F012
:100C0800004343EA505311F0004F23FA02F018BF93
:100C1800404270474FF00000704750EA013005D15C
:100C280011F0004008BF6FF0004070474FF000001F
:100C3800704700BF53B94AB9002908BF00281CBF34
:100C48004FF0FF314FF0FF3000F06EB9ADF1080CF6
:100C58006DE904CE00F006F8DDF804E0DDE90223D2
:100C680004B070472DE9F047089E0D4604468E46AD
:100C7800002B40F083808A42174647D9B2FA82F3A4
:100C88004BB1C3F1200105FA03FE20FA01F19F40A0
:100C980041EA0E0E9C404FEA1748BEFBF8FC1FFACB
:100CA80087F908FB1CE20CFB09F0210C41EA02421F
:100CB80090420AD9BA180CF1FF3180F0188190429D
:100CC80040F21581ACF1020C3A44121AB2FBF8F06A
:100CD80008FB102200FB09F1A4B244EA0244A14235
:100CE80009D93C1900F1FF3280F00381A14240F29A
:100CF800008102383C44641A002140EA0C401EB1CD
:100D08000022DC40C6E90042BDE8F08702B9FFDEF8
:100D1800B2FA82F3002B4FD18D1A01214FEA124EFD
:100D28001FFA82F8B5FBFEFC0EFB1C5508FB0CF005
:100D3800220C42EA0545A84207D97D190CF1FF3279
:100D480002D2A84200F2E98094462D1AB5FBFEF0C3
:100D58000EFB105508FB00F8A4B244EA0544A04570
:100D680007D93C1900F1FF3202D2A04500F2D98020
:100D78001046A4EB080440EA0C40C0E78B4208D9AF
:100D8800002E00F0B1800021C6E900050846BDE844
:100D9800F087B3FA83F100294BD1AB4202D38242E8
:100DA80000F2B980841A65EB030301209E46002EE9
:100DB800AAD0C6E9004EA7E79F40C3F12002D14060
:100DC8004FEA174EB1FBFEF01FFA87F80EFB101121
:100DD80024FA02F29D4000FB08FC2A43150C45EA60
:100DE8000145AC4504FA03F409D97D1900F1FF3136
:100DF80080F08F80AC4540F28C8002383D44A5EBF2
:100E08000C05B5FBFEF10EFB115C01FB08F995B270
:100E180045EA0C45A94507D97D1901F1FF3274D27D
:100E2800A94572D902393D44A5EB090541EA0041BB
:100E380078E7C1F120078B4022FA07FC4CEA030C43
:100E480025FA07F44FEA1C4EB4FBFEF91FFA8CF89A
:100E58000EFB194420FA07F309FB08FA8D401D43DD
:100E68002B0C43EA0444A24502FA01F200FA01F30A
:100E780009D91CEB040409F1FF3048D2A24546D930
:100E8800A9F102096444A4EB0A04B4FBFEF00EFBCA
:100E9800104400FB08FAADB245EA0444A24508D95B
:100EA8001CEB040400F1FF352DD2A2452BD90238E2
:100EB800644440EA0940A0FB0289A4EB0A044C45BB
:100EC800C6464D4619D316D05EB1B3EB0E0264EB9D
:100ED800050404FA07F722FA01F31F43CC40C6E9D8
:100EE80000740021BDE8F087314630460CE78C4697
:100EF800EBE61046FFE64345E6D2B8EB020E69EB97
:100F08000C050138E0E72846D3E711468CE781460F
:100F1800B9E7084673E7084649E7ACF1020C3D44D7
:100F280013E702383C4424E7704700BF10B5044675
:100F3800042002F0E7FD014B1C6010BD5412002094
:100F480030B40C4B5D680C4A146800FB04F49B68D1
:100F5800002104E0E81A02441144A14208D21A46CA
:100F6800044B9B689A42FBD0F4D9D21A1144F4E797
:100F780030BC704710E000E05412002038B5054638
:100F88000024A54205D94FF47A70FFF7D9FF013440
:100F9800F7E738BD00B583B0054B009330235422E2
:100FA8000021084601F0E9FB03B05DF804FB00BF2F
:100FB8001002002000B583B0054B00933023542263
:100FC8000021084601F0D9FB03B05DF804FB00BF1F
:100FD8001800002030B583B000230CE0303102AC9B
:100FE800144404F8081C13E002AC2244303102F81F
:100FF800081C0133DBB2032B16D8C518C45C5A0091
:1010080021099F2CEAD9373102AC144404F8081C92
:101018002978013201F00F010929E5D902AC2244EF
:10102800373102F8081CE4E76946024804F0B4FACC
:1010380003B030BD78B7000830B585B00D4601283B
:101048000AD080B9304B1B78CBB9304B1B7853B1E1
:10105800013B2E4A137006E02B4B1B78032B06D05E
:101068000133294A137001F011FB002417E0274BC4
:101078001B78042BF7D80133244A1370F3E7013B9C
:10108800214A1370EFE7214B1A782244C2EB02126F
:101098002A442146002001F065FB0134E4B2032C08
:1010A800F1D900220B2A0FD8174B1B78174909785A
:1010B8000B44C3EB03132B44995C04AB134403F8B0
:1010C800101C0132D2B2EDE720238DF80B308DF8D9
:1010D8000C303C238DF80D300B4C6A4621780020EB
:1010E80001F040FB0A4A0421002001F03BFB094AB9
:1010F8000521002001F036FB044B187823781844AA
:10110800C0B205B030BD00BF5A12002058120020EE
:1011180084B7000894B7000870B582B004460D463D
:10112800652822D0662C37D0672C64D0682C00F054
:101138008C806A2C00F09D80692C00F0B3806D2CA7
:1011480000F0E2806B2C00F00B816C2C00F00B811E
:10115800A74C2378013323709620FFF70FFF2378DD
:10116800052B00F0038102B070BD0026A04B1E7055
:10117800A04804F073FA01F089FA9F4A0221304628
:1011880001F0F0FA9D4A3146304601F0EBFA0223AD
:101198002B7000F09BFAC5E7954B00221A70984B0C
:1011A8001B78C3B101232B70964804F057FA01F05D
:1011B8006DFA954A0221002001F0D4FA934A0321DE
:1011C800002001F0CFFA8D4A0021084601F0CAFA42
:1011D80000F07CFAA8E78E4804F040FA01F056FACD
:1011E800894A0221002001F0BDFA8A4A0321002021
:1011F80001F0B8FAE7E77E4B00221A70804B1B78A3
:101208009BB1854804F02AFA01F040FA834A02218A
:10121800002001F0A7FA03232B70784A0021084622
:1012280001F0A0FA00F052FA80E701F02FFA7B4AA9
:101238000221002001F096FA794804F00FFA794A61
:101248000321002001F08EFAE7E70026684B1E70A4
:1012580001F01CFA694A3146304601F083FA724AB5
:101268000221304601F07EFA04232B7000F02EFA9A
:101278005FE75F4B00221A7001F008FA604B1B7899
:1012880053B16A4A0221002001F06CFA00235C4A3B
:101298001370674A13704FE7664A0221002001F075
:1012A80061FAF3E7524B00221A70554B1B78CBB109
:1012B80001F0ECF9604A0221002001F053FA5F4A7C
:1012C8001721002001F04EFA01224FF4E00100201E
:1012D80002F012FB5A4B00221A704FF4FA60FFF723
:1012E8004DFE2CE701F0D2F9564A0121002001F009
:1012F80039FA554A0221002001F034FA534A0321F1
:10130800002001F02FFAE8E7394B00221A70484B09
:101318001B789BB101F0BAF94D4A0221002001F077
:1013280021FA01224B49002002F0E6FA4A4B00223A
:101338001A804FF4FA60FFF721FE03E701F0A6F9DF
:10134800404A0121002001F00DFA3F4A0221002005
:1013580001F008FA3D4A0321002001F003FAE8E70A
:101368006B232B70F1E66C232B70F1E63B4A136874
:10137800B3FA83F35B09136001F088F9384B0093E3
:10138800302354220021084601F0F7F91C4B1B7842
:1013980053B92B78022B10D0042B17D0012B1ED059
:1013A800134B00221A70DEE62E4B00930C231A46CC
:1013B8000021084601F0E1F9EBE72B4B00930C23E1
:1013C8001A460021242001F0D8F9E9E7274B0093B9
:1013D8000C231A460021242001F0CFF9E0E7244B22
:1013E80000930C231A460021242001F0C6F9D7E700
:1013F80059120020A0B70008ACB70008B8B7000819
:101408005E120020C4B70008D0B70008DCB7000897
:10141800E8B70008FCB7000808B8000814B80008C6
:1014280020B800082CB8000838B8000848B80008E8
:101438005F12002054B8000860B800086CB80008B3
:101448006A14002078B8000884B8000890B800082A
:101458009CB80008A40F700068140020A001214265
:10146800080400200006002030060020180600208E
:10147800000000202DE9F04188B02D4B9A6942F018
:1014880010029A619A6902F010020192019A9A690F
:1014980042F004029A619A6902F004020292029AE6
:1014A8009A6942F008029A619B6903F00803039362
:1014B800039B4FF444730493012505950024069477
:1014C800022707971B4E04A9304602F02BFB4FF06A
:1014D8001008CDF81080059506940797164F0DEB68
:1014E8000801384602F01EFB4FF40073049305947C
:1014F80006950DEB0801384602F014FB22464146DA
:10150800304602F02BFC22464146384602F026FCC3
:101518002A464FF44071304602F020FC22464FF430
:101528008071064802F01AFC08B0BDE8F08100BFDF
:10153800001002400008014000100140000C01406A
:1015480072B6FEE700B597B0002311931293079384
:10155800089309930A930B930193029303930493BB
:101568000593069305220C924FF480320D920E9348
:1015780001230F9310930223139314924FF4E01353
:1015880015930CA802F00CFCD8B90F23079302217D
:101598000891002309934FF480620A920B9307A8DD
:1015A80002F042FE78B9012301934FF4807302934D
:1015B80001A802F029FF40B902F0FAFD17B05DF862
:1015C80004FBFFF7BDFFFFF7BBFFFFF7B9FF000004
:1015D80000B583B002238DF8073002F005FAFFF753
:1015E800B1FFFFF747FF01F011FD01F069FD01F0C0
:1015F800D7FE01F0EFFE4820FFF798FC01F0BCF998
:1016080001F05EFB2E4801F091FC02F069F801F050
:1016180051F801F03BF82B4804F020F82A4A002141
:10162800084601F09FF8012001F03AFF1DE06B2BFE
:101638003CD06C2B41D1002000F0D4FE02238DF861
:10164800073001E000F0A6FC01F040FC022803D1BD
:101658000DF1060000F048FE0DF107019DF80600A7
:10166800FFF75AFD00238DF806309DF80730042B4C
:10167800DDD85AB20AB3013B032B1ED801A252F897
:1016880023F000BF4D1600089D160008A316000899
:10169800AF16000800F0C6FAD6E700F0B7FD02233F
:1016A8008DF80730D0E700F01BFBCDE7012000F0F4
:1016B80099FE02238DF80730C6E700F0B3FAC3E7B6
:1016C80028140020ACB80008B8B80008034B002262
:1016D8001A705A709A70DA70704700BF681200204A
:1016E80010B5002413E00F4B19780F48025D0F4B1B
:1016F80003EB81031A5501F5E01101F2EA310122E9
:1017080004EB8101204402F0F7F80134E4B2032C21
:10171800E9D904480378013303700122044902F02F
:10172800EBF810BD68140020681200206C1400202B
:10173800A40F70000023032B12DC0A4AD15C0A4A6A
:10174800D25C914201D0002306E00133F3E7064A58
:10175800D15C044AD1540133032BF8DD00207047D3
:1017680001207047601200206812002008B500238D
:1017780001E001339BB21C4A12889A4232D903EB2A
:1017880083014A001949895C194A12789142F0D1BB
:1017980003EB83025100154A0A445178144A5278DF
:1017A8009142E6D103EB83025100104A0A44917832
:1017B8000F4A92789142DCD103EB830041000B4A37
:1017C8000A44D1780A4AD2789142D2D1094803F022
:1017D80045FF00F05BFF084A0121002000F0C2FF2E
:1017E800012000E0002008BD6A14002084140020B5
:1017F80068120020C4B80008D4B8000870B50024E6
:1018080001E00134E4B21B4B1B78A3422FD91A4DD7
:1018180005EB8400FFF7DEFB15F82420174B1B7837
:101828009A42EED105EB84035A78144B5B789A42BE
:10183800E7D105EB84039A78104B9B789A42E0D164
:1018480005EB8406F2780D4BDB789A42D9D10C4827
:1018580003F004FF00F01AFF0A4A0121002000F0FB
:1018680081FF4FF47A70FFF789FB012000E0002028
:1018780070BD00BF681400206C140020681200209E
:10188800DCB80008D4B8000870B582B0044600255A
:1018980028461DE001339BB2052B17D800EB8002C8
:1018A800404901EB42021A44167914F81320A2F1B8
:1018B800300104EB43025278303A02EB820201EB2A
:1018C80042029642E6D10135ADB2E3E7013080B27B
:1018D800354B1A88824202D900252B46DCE7042DB5
:1018E8004CD80023052B14D814F8130004EB43013B
:1018F8004978303901EB810100EB4101303902EBC5
:101908008200284D05EB40001844017101339BB259
:10191800E8E7002309E02549CD5C02EB8201214874
:1019280000EB4101CD5401339BB2032BF3D91F497E
:10193800CB7800938B784A7809781D4803F02CFE01
:10194800194D2B88174903EB830001EB4002D3782C
:1019580000939378527811F81010164803F01CFE83
:101968002B8801332B80002303E02022E25401332B
:101978009BB20A2BF9D9012002B070BD0E4803F0C2
:101988006DFE0E4A0521002000F0ECFE4FF47A703F
:10199800FFF7F4FA0A4A0521002000F0E3FE0020D0
:1019A800EAE700BF841400206A14002068120020AF
:1019B800E4B80008F4B8000808B9000814B9000829
:1019C80020B9000808B501F04BF9FFF7B3FE08B1DC
:1019D800012008BDFFF712FF78B9184B1B78062BBA
:1019E8000BD8174B1B7843B1154B5B782BB1144BB5
:1019F8009B7813B1124BDB787BB9104B1B78062B05
:101A0800E6D900F043FE0F4A0121002000F0AAFEAB
:101A18004FF47A70FFF7B2FADAE7FFF761FE00F0E9
:101A280035FE094803F01AFE084A0121002000F09B
:101A380099FE4FF47A70FFF7A1FAC9E768140020FD
:101A48006812002050B900082CB9000844B90008F1
:101A5800002308E000EB80020E4901EB420200215E
:101A6800D1540133DBB2032BF4D90023052B0AD858
:101A780000EB8002074901EB42021A440021117170
:101A88000133DBB2F2E7044A1388013B13800120DB
:101A9800704700BF841400206A14002038B501285C
:101AA8000AD080B9454B1B78D3B9454B1B7853B145
:101AB800013B434A137006E0404B1B78042B04D0CB
:101AC80001333E4A1370002418E03D4B1A783D4B11
:101AD8001B88053B9A42F6DA0132394B1A70F2E755
:101AE800013B364A1370EEE7374A20239372D372CC
:101AF8002146002000F036FE0134E4B2A3B2314A98
:101B08001088834243D2032C1FD80022052AEBD821
:101B18002B4B1B78234403EB83032C4901EB430332
:101B28001344197950002A4BA3FB0153DB0803EB3C
:101B38008305A1EB45013031234D05F81210411CF6
:101B480030336B540132D2B2E0E70022052A20D8A4
:101B58001B4B1B78194909780B4403EB83031B497A
:101B680001EB4303134419795400194BA3FB0153A8
:101B7800DB0803EB8305A1EB45013031124D05F875
:101B88001210611C30336B540132D2B2DEE70022EE
:101B9800DCE70D4B20229A723C22DA7230B9084BEE
:101BA8001878064B1B781844C0B238BD1A46034B48
:101BB8001978002000F0D6FDF1E700BF5C12002084
:101BC8005B1200206A1400204806002084140020BC
:101BD800CDCCCCCC08B5012811D0114B1B7813B94A
:101BE8000F4B012119700E490B78013B2020D0546E
:101BF8000B700321002000F0B5FD012008BD084B43
:101C08001B780B2B03D1064B0B221A70F5E7D15426
:101C1800013303490B700321002000F0A3FDECE71A
:101C28005D12002070B501F01BF82748FFF7D2F9C4
:101C3800002401E00134A4B2244B1B88A34241D9FB
:101C480004EB84025300224AD25C1F4B1B789A4251
:101C5800F0D104EB84035A001D4B13445A781A4BF5
:101C68005B789A42E6D104EB84035A00184B13447C
:101C78009A78154B9B789A42DCD104EB84014A0090
:101C8800134B1344DA78104BDB789A42D2D11148BF
:101C980003F0E4FC00F0FAFC0F4E012333600F4D13
:101CA8002B60FFF787F94FF47A70FFF767F9FFF7B2
:101CB80071F96420FFF762F9002333602B60FFF7A6
:101CC80005FDB7E770BD00BF681200206A14002048
:101CD800841400205CB90008A0812142A40121429B
:101CE80038B500F0BDFF9F4B1C78002C40F03781C1
:101CF8009D4B1B78E02B1FD19B4B5B78312B1BD165
:101D0800994B9B78AF2B17D1974BDB78432B13D18B
:101D18000125964B1D70934B1D7000F0B7FC94483D
:101D280003F09CFC934A2946002000F01BFDFFF7B6
:101D3800CDFC01E00134E4B28F4B1B78A34240F2A2
:101D480010818E4B13F82420874B1B789A42F1D1CF
:101D58008A4B03EB84035A78834B5B789A42E9D128
:101D6800864B03EB84039A787F4B9B789A42E1D1A8
:101D7800824B03EB8401CA787B4BDB789A42D9D13A
:101D88000125784B1D7000F081FC794803F066FC52
:101D98007B4A2946002000F0E5FCFFF797FCC9E7DD
:101DA800022800D1002400F071FC764A0021084680
:101DB80000F0D8FC744A0221002000F0D3FC734ADA
:101DC8000321002000F0CEFC714A0421002000F01D
:101DD800C9FCFFF7F7FD002C00F0C38001F076F88E
:101DE800682800F29D80222806D2102800F0AD80D5
:101DF8001828D5D10024D6E722384628D3D801A3FD
:101E080053F820F0571F0008AF1D0008AF1D000849
:101E1800AF1D0008AF1D0008AF1D0008AF1D00086A
:101E2800AF1D0008AF1D0008AF1D0008AF1D00085A
:101E3800AF1D0008AF1D0008AF1D0008571F0008A0
:101E4800AF1D0008AF1D0008AF1D0008AF1D00083A
:101E5800AF1D0008AF1D0008AF1D0008571F000880
:101E6800AF1D0008AF1D0008AF1D0008AF1D00081A
:101E7800AF1D0008AF1D0008AF1D0008AF1D00080A
:101E8800AF1D0008571F0008AF1D0008AF1D000850
:101E9800AF1D0008AF1D0008AF1D0008AF1D0008EA
:101EA800AF1D0008571F0008AF1D0008AF1D000830
:101EB800AF1D0008AF1D0008AF1D0008AF1D0008CA
:101EC800AF1D0008571F0008AF1D0008AF1D000810
:101ED800AF1D0008AF1D0008AF1D0008AF1D0008AA
:101EE800AF1D0008571F0008AF1D0008AF1D0008F0
:101EF800AF1D0008AF1D0008AF1D0008AF1D00088A
:101F0800AF1D0008571F0008AF1D0008AF1D0008CF
:101F1800AF1D0008AF1D0008AF1D0008571F0008BF
:101F2800A82816D006D9E02817D0E2287FF43BAFBE
:101F3800002438E790280ED0A22801D1002432E7E7
:101F48007A287FF430AF00242DE700242BE7002403
:101F580029E7002427E7002425E7002423E70124B4
:101F680039E738BD5E120020681200205F12002099
:101F78006CB9000880B90008681400206C140020AF
:101F880090B900089CB90008A8B90008B0B90008C1
:101F9800B4B9000810B584B0934A01AB07CA03C3AB
:101FA80023F8022B120C1A70904B1B780BB904B053
:101FB80010BD00F055FEFFF7BDFB0028F7D1FFF775
:101FC800D5FB0028F3D18A4B1B88B3F57A7FEED86E
:101FD80000F05CFB874A0021084600F0C3FB864AF4
:101FE8000121002000F0BEFB00F070FF04466828C5
:101FF80000F28780302879D3A0F13003382BF3D84A
:1020080001A252F823F000BF67210008F11F000861
:10201800F11F0008F11F0008F11F0008F11F000858
:10202800F11F0008F11F00087F210008F11F0008B8
:10203800F11F0008F11F0008F11F0008F11F000838
:10204800F11F0008F11F0008F11F0008F11F000828
:1020580097210008F11F0008F11F0008F11F000870
:10206800F11F0008F11F0008F11F0008F11F000808
:10207800A3210008F11F0008F11F0008F11F000844
:10208800F11F0008F11F0008F11F0008F11F0008E8
:10209800AF210008F11F0008F11F0008F11F000818
:1020A800F11F0008F11F0008F11F0008F11F0008C8
:1020B8008B210008F11F0008F11F0008F11F00081C
:1020C800F11F0008F11F0008F11F0008F11F0008A8
:1020D80023210008F11F0008F11F0008F11F000864
:1020E800F11F0008F11F00085B21000810283CD0F0
:1020F80018287FF479AF01AA32210120FFF76AFD81
:1021080072E7902855D0C2281AD101A8FFF7BCFB66
:1021180000283FF469AF01F059FA00F0B7FA622CD1
:102128004DD0C22C55D1354803F036FA344A022135
:10213800002000F017FB4FF47A70FEF71FFF36E718
:102148007A287FF451AF01AA33210120FFF742FD1D
:102158004AE701AA30210120FFF73CFD44E701AA24
:1021680031210120FFF736FD3EE701AA3421012085
:10217800FFF730FD38E701AA35210120FFF72AFDD6
:1021880032E701AA36210120FFF724FD2CE701AA36
:1021980037210120FFF71EFD26E701AA382101207B
:1021A800FFF718FD20E701AA39210120FFF712FDEA
:1021B8001AE701AA30210020FFF70CFD14E7114AA5
:1021C8000221002000F0CEFA4FF47A70FEF7D6FE16
:1021D800EDE60D4A0221002000F0C4FA4FF47A70AF
:1021E800FEF7CCFEE3E600BF0CBA00085E12002042
:1021F8006A140020BCB90008C8B90008D4B900089E
:10220800E8B90008F4B9000800BA0008304B1B7898
:10221800002B5BD070B500242E4B1B88002B4BD0B5
:1022280000F034FA0220FFF739FC264601250FE0BA
:10223800E0280DD10020FFF731FC064608E03046C3
:10224800FFF706FC20B101F0C1F9002500E00025E8
:1022580075B100F03BFE0446C228F0D0E8D86228E9
:10226800F5D0A828F4D10120FFF718FC0646EFE7BF
:1022780000F00CFA622C0BD0C22C13D1164A0221A2
:10228800002000F06FFA4FF47A70FEF777FE1CE03A
:10229800124A0221002000F065FA4FF47A70FEF726
:1022A8006DFE12E00E4A0221002000F05BFA4FF4A6
:1022B8007A70FEF763FE08E00A4A0221002000F067
:1022C80051FA4FF47A70FEF759FE70BD704700BF9F
:1022D8005E1200206A14002018BA0008F4B9000839
:1022E80000BA000820BA000870B5A2B006468722D6
:1022F80039496846FDF794FF69460220FEF79CFEBF
:10230800002500F0E3FD04460146344803F044F993
:10231800A82C2ED014D8622C3DD007D9A22CF0D1ED
:1023280069460020FEF788FE0546EAE7022C26D01B
:10233800222CE6D169460020FEF77EFE0546E0E73E
:10234800E02C22D0E22C05D169460120FEF774FE6C
:102358000546D6E7C22CD4D12946214803F01CF9FA
:10236800082D36D8DFE805F0191D202326292C2F43
:10237800320069460120FEF75FFE0546C1E769465F
:102388000120FEF759FE0546BBE769460020FEF727
:1023980053FE0546B5E70025DEE76523337022B016
:1023A80070BD66233370FAE767233370F7E7682355
:1023B8003370F4E76A233370F1E76D233370EEE787
:1023C80069233370EBE76C233370E8E76B233370D2
:1023D800E5E765233370E2E7F0B6000828BA00089D
:1023E80038BA000830B589B00546604B04AC0FCB4D
:1023F80007C424F8023B1B0C23705D4B6C460FCBC3
:1024080007C424F8023B1B0C23702C4625B1012D70
:1024180000F0868009B030BD00F038F9012567E08A
:10242800544A0021084600F09DF9534B1988534B34
:10243800A3FB01235B093033DBB28DF81B30302B53
:102448005ED04F4AA2FB0103DB08A2FB0302D208BD
:1024580002EB8202A3EB42033033DBB28DF81C306F
:10246800302B51D0464BA3FB0123DB0803EB83033E
:10247800A1EB430130318DF81D1004AA0121002081
:1024880000F070F93F4B19783C4BA3FB01235B0923
:1024980030338DF80B30302B3AD0394AA2FB010388
:1024A800DB08A2FB0302D20802EB8202A3EB420381
:1024B8003033DBB28DF80C30302B2DD0304BA3FBF2
:1024C8000123DB0803EB8303A1EB430130318DF8D3
:1024D8000D106A460221002000F044F92A4A03211F
:1024E800002000F03FF9294A0421002000F03AF9C1
:1024F800002D8FD000F0EAFC002891D025468FE708
:1025080020238DF81B309CE720238DF81C30A9E789
:1025180020238DF80B30C0E720238DF80C30CDE751
:1025280000F0B4F818E01A4A0021084600F01AF939
:10253800184A0121002000F015F9174A022100204D
:1025480000F010F9154A0321002000F00BF9144A95
:102558000421002000F006F9002C3FF45BAF00F0E6
:10256800B5FC0028DFD00024DDE700BFCCBA0008A6
:10257800DCBA000844BA00086A1400201F85EB5131
:10258800CDCCCCCC6814002054BA000864BA00083A
:1025980074BA000884BA000898BA0008A8BA0008F3
:1025A800B8BA00082DE9F04186B01E4B9A6942F08E
:1025B80008029A619A6902F008020092009A9A69E0
:1025C80042F010029A619B6903F010030193019B8A
:1025D80040F603530293012403944FF00008CDF80A
:1025E800108002260596104D02A9284601F09AFA95
:1025F800202702970394CDF8108005960B4E02A968
:10260800304601F08FFA22463946304601F0A6FBE3
:10261800224640F60341284601F0A0FB06B0BDE87B
:10262800F08100BF00100240000C01400010014082
:10263800124B00221A6019B904331A6000230FE004
:102648000F4B01221A60F9E70E4A012111600E4A68
:10265800002111604000C0B2012111600B44DBB2BF
:10266800072B06D810F0800FEED1064A0021116022
:10267800EDE7024B01221A60704700BF80812142BA
:1026880084812142A8812142AC81214210B50021D8
:102698000C20FFF7CDFF00218020FFF7C9FF0024A1
:1026A800B4F5FC7F05D201210020FFF7C1FF0134FA
:1026B800F6E710BD70B5FFF775FF174E00243460BC
:1026C8000120FEF73DFC01253560A6F50046143EC5
:1026D80034602846FEF734FC35602846FEF730FCA7
:1026E80021462120FFF7A4FF2146C820FFF7A0FFBD
:1026F80021460620FFF79CFF21461320FFF798FF8D
:1027080021462020FFF794FFFFF7C0FF21460C2049
:10271800FFF78EFF346070BD9401224210B5044665
:102728000846002140F04000FFF782FF002144F0F6
:102738008000FFF77DFF10BD38B5A0F12005EDB290
:102748000024052C0BD805EB4503054A02EB43038F
:102758000121185DFFF76CFF0134E4B2F1E738BDE1
:102768005406002010B51446FFF7D8FF207818B19A
:10277800FFF7E2FF0134F9E710BD2DE9F047814684
:102788008A461646089D302B00D9302313F0070FD0
:1027980007D04FEAD30808F101085FFA88F8002744
:1027A8000DE04FEAD308FAE7012115F8010BFFF70E
:1027B8003FFF0134E4B2B442F6D30137FFB24745D4
:1027C80007D207EB0A01C9B24846FFF7A7FF002462
:1027D800F1E7BDE8F08708B500F054FD08BD08B57D
:1027E800FF2000F04FFD08BD38B5440004F07E041A
:1027F80044F08004094D00221021284601F0AEFA69
:102808002046FFF7E8FFFFF7EAFF04460122102100
:10281800284601F0A3FA204638BD00BF0008014051
:1028280070B50D46400000F07E04094E00221021CC
:10283800304601F093FA2046FFF7CDFF2846FFF710
:10284800CAFF01221021304601F088FA70BD00BF8E
:102858000008014038B504460D46FFF7C5FF40EAB9
:102868000501C9B22046FFF7DBFF38BD38B504467D
:102878000D46FFF7B9FF20EA0501C9B22046FFF768
:10288800CFFF38BD08B51420FFF7AEFF10F0030FD7
:1028980000D008BD03211420FFF7DCFFF9E7000092
:1028A80010B51F4C01221021204601F057FA0120D3
:1028B800FEF746FB00221021204601F04FFA0120C6
:1028C800FEF73EFB01221021204601F047FA0120C5
:1028D800FEF736FB0F210120FFF7A2FF0120FFF7CB
:1028E80083FF10F0100FF9D10120FEF729FB3D21DD
:1028F8001120FFF795FF1E212D20FFF791FF0021E2
:102908002C20FFF78DFF8D212A20FFF789FF3E211C
:102918002B20FFF785FF40211520FFF781FF10BD11
:1029280000100140412800D0704708B5082108462A
:10293800FFF79CFF3D211120FFF772FF862117202A
:10294800FFF76EFF7F212620FFF76AFF1E212D204B
:10295800FFF766FF00212C20FFF762FF8D212A2058
:10296800FFF75EFF3E212B20FFF75AFF0220FEF7FC
:10297800E7FAFFF787FF08BD08B500F07DFB0122E5
:102988001021074801F0EAF901221021054801F059
:10299800E5F9FFF785FF4120FFF7C4FF08BD00BF39
:1029A80000100140000801402DE9F04707468A461B
:1029B800144699460C2817D00E2819D110264FF026
:1029C800120848F080010220FFF72AFF8021042026
:1029D800FFF74CFF00210120FFF722FF80210A208A
:1029E800FFF738FF00250CE030264FF07708E8E7BE
:1029F8000026B046E5E71AF805100920FFF710FF92
:102A08000135AC42F7D839460120FFF709FF0C2FF2
:102A18001DD04FF47A750420FFF7E6FE0446013D09
:102A280004D010F0010F01D10642F4D080210D200E
:102A3800FFF71CFF85B9022480210C20FFF70AFF4D
:102A480000210120FFF7ECFE2046BDE8F087802139
:102A58000D20FFF7FFFEDCE70620FFF7C5FE10F0AC
:102A68001B0F2BD108EA040414F0010400D0012440
:102A78000C2FE1D10A20FFF7B7FE06460C20FFF71E
:102A8800B3FE10F0070009D0731E00EBC300089BCB
:102A980018603EB1122E06D9122604E0F300089AF7
:102AA8001360F6E70126002505E00920FFF79CFEE4
:102AB80009F805000135AE42F7D8BDE70224BBE7A7
:102AC80030B589B004460D4608210846FFF7CEFE0A
:102AD80007210D20FFF7A4FE03211420FFF7BAFEFB
:102AE8008DF80C4002AB009303AB012219460C2071
:102AF800FFF75AFF58B9029B102B01D0022007E0BC
:102B08009DF80C302B709DF80D306B7000E00220A2
:102B180009B030BD30B589B0044608210846FFF732
:102B2800A5FE00210D20FFF77BFE80210E20FFF778
:102B38009DFE93238DF80C3020238DF80D3002ABC9
:102B4800009303AB022219460C20FFF72DFF054620
:102B5800C8B180210E20FFF77DFE284609B030BDA0
:102B680008A9194411F8141CE1544A40D2B201339F
:102B7800DBB2032BF4D908A90B4413F8143C934295
:102B8800E7D00225E5E702460346F2E7F8B507462F
:102B98000D46164604210520FFF768FE0021012096
:102BA800FFF73EFE80210A20FFF754FE0024AC42C6
:102BB80006D2395D0920FFF733FE0134E4B2F6E7A7
:102BC80003210120FFF72CFEFF240520FFF70CFE50
:102BD800631E13F0FF0402D010F0040FF5D022207A
:102BE800FFF702FE30702120FFF7FEFD7070F8BD80
:102BF80000B589B093238DF80C3070238DF80D3013
:102C080000238DF812300DE0991CC25C0DF1200CE8
:102C1800614401F8142C9DF812104A408DF81220D6
:102C28000133DBB2032BEFD90DF11302072103A8FF
:102C3800FFF7ACFF08210846FFF718FE02AB009328
:102C480003AB092219460C20FFF7AEFE20B9029B00
:102C5800182B02D0022000E0022009B05DF804FB26
:102C680010B514495220FFF72BFF134B187030B1E1
:102C7800114B1B785BB1104B1B7883B110BD1C4600
:102C8800022323700D48FFF745FF2070F0E70A4C38
:102C9800022323700948FFF7ABFF2070EBE7064BD0
:102CA80002221A700548FEF795F96420FEF766F9C6
:102CB800E4E700BF641200206C12002068120020B4
:102CC80030B585B0114C124B236047236360002553
:102CD800A56042F21073E3602561204602F0B6F861
:102CE8000095012301930295032303930C2269465F
:102CF800204602F00BF90C21204602F073F92268F5
:102D0800D36843F00103D36005B030BD7C120020C6
:102D18000008004030B587B0144BDA6942F004026D
:102D2800DA61DA6902F004020092009A9A6942F0C4
:102D380008029A619B6903F008030193019B4FF411
:102D4800007302930023039301240494032505953B
:102D580002A9074800F0E6FE2A4621461E2000F098
:102D680079FE1E2000F0AAFE07B030BD0010024018
:102D7800000C014008B5024801F05EFF08BD00BF25
:102D88007C1200200268114B9A4200D07047104A0A
:102D9800137892F90020002AF8DA03F0EF030C4ABE
:102DA800137013F00F0F02D143F040031370084B58
:102DB8001B7803F00F020D2A03D80133044A13705D
:102DC800704703F07003024A1370DFE70008004001
:102DD800781200200268364B9A4200D07047354B73
:102DE8001B688BB1344B1B681A6A22F400521A62B2
:102DF8001A6A42F400521A6200225A622F4A137861
:102E080043F010031370704710B52B4C0C2120466B
:102E180001F0F6FE80B22A4B188023681A6A22F461
:102E280000521A621A6A1A62244B1A7812F0100FAA
:102E380010D012F0800F13D1A0F58350093880B25A
:102E4800B0F5F97F06D862F07F021C4B1A701D4B53
:102E580000221A70194A137823F01003137010BD5A
:102E6800A0F22D139BB2B3F5F97F04D8164A136864
:102E78005B001360EEE7A0F279539BB2B3F5C77F0E
:102E880006D8114A13685B0043F001031360E1E7B9
:102E9800A0F699039BB2B3F5C77FDBD809490B7835
:102EA80001330B7022F00F02044B1A70D2E700BFF7
:102EB80000080040248121427C1200207812002062
:102EC8006E1200207012002074120020144B1B7820
:102ED80013F0400023D010B4124A11680C0EC1F34D
:102EE8000742D243D2B2B2EB116F0CD0002013F0DC
:102EF800800FFCD123F04003094A13700A4B0022CB
:102F08001A7010BC704744B9C1F30720CAB2D24343
:102F1800D2B28242EBD02046E9E70020E7E77047CB
:102F280078120020741200207012002008B5054B9A
:102F38001860054B1868002302221946806802F0C1
:102F480095FB08BDC412002088080020022801D87B
:102F58000120704708B502F0A5FA09230360002094
:102F680008BD000010B5013801280AD814464FF0F2
:102F7800FF3392B20748006802F091F940B9204641
:102F880010BD02F08FFA092303604FF0FF30F7E716
:102F98000520F5E7C4120020022801D80020704758
:102FA80008B502F07FFA092303604FF0FF3008BD2F
:102FB80008B502F077FA092303604FF0FF3008BD27
:102FC80008B548B94FF0FF3301220848006802F0FD
:102FD800D2F940B9012008BD02F064FA0923036060
:102FE8004FF0FF30F7E70520F5E700BFC4120020D7
:102FF80008B5022804D84FF400534B60002008BDE0
:1030080002F050FA09230360F8E7000008B5084801
:10301800084B03604FF0FF3343604FF480738360C5
:1030280001F052FB00B908BDFEF78AFAFBE700BFC2
:10303800C81200200028004002680C4B9A4200D0B9
:10304800704700B583B000F08FFE094BDA6942F093
:103058000062DA61DB6903F000630193019B054BB1
:1030680001221A6003B05DF804FB00BF002800408D
:10307800001002403C04424208B50F480F4B036061
:103088004FF48273436000238360C36002220261AD
:10309800012242614FF4007282611822C261036208
:1030A800436283620A23C36201F0E6FB00B908BDEC
:1030B800FEF746FAFBE700BFDC12002000300140B3
:1030C80008B50F480F4B03604FF482734360002329
:1030D8008360C36002220261012242614FF40072E0
:1030E80082611022C2610362436283620A23C3625F
:1030F80001F0C2FB00B908BDFEF722FAFBE700BFEA
:10310800341300200038004008B50F480F4B036007
:103118004FF48273436000238360C360022202611C
:10312800012242614FF4007282611022C26103627F
:10313800436283620A23C36201F09EFB00B908BDA3
:10314800FEF7FEF9FBE700BF8C130020003C0040AF
:1031580010B58AB000230693079308930993036870
:10316800424A934207D0424A93422CD0414A934262
:1031780053D00AB010BD404B9A6942F480529A610C
:103188009A6902F480520092009A9A6942F0040205
:103198009A619B6903F004030193019BA0230693A2
:1031A8000223079303230993344C06A9204600F011
:1031B800B9FC4023069300230793089306A92046E9
:1031C80000F0B0FCD5E72C4BDA6942F48042DA61B2
:1031D800DA6902F480420292029A9A6942F008027D
:1031E8009A619B6903F008030393039B4FF4204300
:1031F80006930223079303230993214C06A920462B
:1032080000F090FC4FF48043069300230793089343
:1032180006A9204600F086FCABE7174BDA6942F4B2
:103228000042DA61DA6902F400420492049A9A6967
:1032380042F008029A619B6903F008030593059B15
:103248002823069302230793032309930C4C06A90A
:10325800204600F067FC1023069300230793089389
:1032680006A9204600F05EFC83E700BF003001405D
:1032780000380040003C00400010024000080140B7
:10328800000C014000B587B08DF80F004FF47A7339
:10329800009301230DF117020DF10F01034801F00E
:1032A80046FB9DF8170007B05DF804FBDC12002010
:1032B80000B587B08DF80F004FF47A73009301239F
:1032C8000DF117020DF10F01034801F030FB9DF8D5
:1032D800170007B05DF804FB3413002082B00E4BD2
:1032E8009A6942F001029A619A6902F00102009219
:1032F800009ADA6942F08052DA61DB6903F08053A0
:103308000193019B054A536823F0E06343F000737F
:10331800536002B0704700BF001002400000014037
:1033280008B501F05FF8FEE7FEE7FEE7FEE7FEE717
:1033380070477047704708B500F068FB08BD01206A
:10334800704708B502F0AEF8162303604FF0FF305F
:1033580008BD08B54FF0FF31FFF7F3FFFEE70000A7
:1033680008B503460B4A126842B10A4A106803447A
:103378006A46934206D8074A136008BD054A0649BB
:103388001160F2E702F08EF80C2303604FF0FF3073
:10339800F3E700BFE4130020D028002070470000A6
:1033A80008B50A480A4B03604FF4E1334360002331
:1033B8008360C36003610C2242618361C36101F0D1
:1033C8003FFF00B908BDFEF7BBF8FBE7E813002094
:1033D8000038014008B50A480A4B03604FF4E1334E
:1033E800436000238360C36003610C2242618361F0
:1033F800C36101F025FF00B908BDFEF7A1F8FBE79E
:10340800281400200044004010B588B0002304931D
:1034180005930693079303681D491E4A934218BFF4
:103428008B4201D008B010BD1B4B9A6942F4804210
:103438009A619A6902F480420192019ADA6942F427
:103448000032DA61DA6902F400320292029A9A6969
:1034580042F004029A619B6903F004030393039BFF
:103468004FF40173049302230593032307930B4C32
:1034780004A9204600F056FB4FF48163049300230F
:103488000593069304A9204600F04CFBCAE700BF49
:10349800004400400038014000100240000801408C
:1034A8002DE9F04182B00746414C01224FF4E0017A
:1034B800204600F067F921883E4802F06DF80026A2
:1034C8003DE0B50006EB8601490001F5E001043155
:1034D800012221440DF1070000F054F93544364B20
:1034E80003EB45059DF807302B550134A4B2032C96
:1034F800E7D9354606EB86002F4B03EB4000FDF776
:1035080069FD0024052C18D84FEA850805EB8501CC
:10351800490001F5E0010831012221440DF10700BD
:1035280000F030F9A844244B03EB480323449DF8EA
:1035380007201A710134A4B2E4E70136B6B21C4B75
:103548001B88B34201D90024D1E7012F02D002B071
:10355800BDE8F081194C01221949204600F012F902
:103568002178184802F018F800251BE005F5E0114D
:1035780001F2EA31012204EB81010DF1070000F0AC
:1035880001F9114B03EB85039DF807201A55013407
:10359800A4B2032CEAD90C4800EB8500FDF71AFD0C
:1035A8000135ADB2054B1B78AB42D0D90024F0E70A
:1035B8006A14002004BB000884140020681400204A
:1035C800A40F700014BB00086C14002030B583B041
:1035D80001224FF4E0011E4800F08EF900242EE08D
:1035E80004EB84035A001B4B13445B5D8DF80730D2
:1035F80002F5E0010431012229440DF1070000F031
:103608007BF90135ADB2032DEAD90025052D14D873
:1036180004EB84035A000F4B13442B441B798DF899
:10362800073002F5E0010831012229440DF10700B5
:1036380000F062F90135ADB2E8E70134A4B2044BF9
:103648001B88A34201D90025DDE703B030BD00BFC8
:103658006A1400208414002010B502280DD0032815
:103668000DD11520074C00232360FFF721FEFF2012
:10367800FFF71EFE0123236010BD3520F2E7052069
:10368800F0E700BF8881224210B5044C0023236074
:103698000620FFF70DFE0123236010BD888122421A
:1036A80038B50E4D00242C609020FFF701FE20460F
:1036B800FFF7FEFD2046FFF7FBFD2046FFF7F8FD6C
:1036C800FF20FFF7F5FD0402A4B2FF20FFF7F0FD8D
:1036D80080B201232B60204338BD00BF888122427D
:1036E80010B586B0214B9A6942F020029A619B6915
:1036F80003F020030193019B042302930124039404
:1037080004940323059302A9194800F00BFA194BF6
:103718001C60FFF7F9FCFFF7C3FF174B18804EF644
:10372800187398420DD0FFF7BBFF134B1B889842C4
:1037380016D0124801F092FF4FF4FA70FDF71EFC04
:10374800F1E70320FFF788FF10F0010FEBD1094CD8
:1037580000232360B720FFF7ABFD01232360E2E7D6
:10376800074801F07BFF06B010BD00BF0010024003
:1037780000140140888122428008002028BB0008EC
:1037880040BB000870B506460C461546144B00228F
:103798001A600320FFF78CFD124B1A884EF6187337
:1037A8009A4214D0C4F30740FFF782FDC4F3072000
:1037B800FFF77EFDE0B2FFF77BFD0024AC420AD2A2
:1037C800FF20FFF775FD30550134A4B2F6E7200E4F
:1037D800FFF76EFDE6E7024B01221A6070BD00BFDD
:1037E800888122428008002008B50120FFF734FFB5
:1037F80010F0010FF9D108BD70B506460C46154604
:10380800FFF742FF144B00221A600220FFF750FD19
:10381800124B1A884EF618739A4213D0C4F3074015
:10382800FFF746FDC4F30720FFF742FDE0B2FFF7BC
:103838003FFD0024AC4209D2305DFFF739FD013469
:10384800A4B2F7E7200EFFF733FDE7E7024B0122AA
:103858001A60FFF7C9FF70BD8881224280080020E6
:10386800F8B507460E461446CDB2C5F58075ADB21B
:10387800954203D3154601E04FF480752A46314638
:103888003846FFF7B9FFAC4208D02F442E44641BDA
:10389800A4B2B4F5807FEFD82546EFE7F8BD000065
:1038A80010B50403FFF7F0FEFFF79EFF104B002250
:1038B8001A602020FFF7FCFC0E4B1A884EF618738E
:1038C8009A4211D0C4F30740FFF7F2FC200A00F037
:1038D800F000FFF7EDFC0020FFF7EAFC044B0122A3
:1038E8001A60FFF781FF10BD200EFFF7E1FCE9E742
:1038F80088812242800800202DE9F0470646894643
:1039080017464FEA1138C1F30B05C5F58054A4B228
:10391800944204D3144602E04FF4805400254FEA41
:10392800083A4FF4805251461B48FFF72BFF0023FB
:1039380001E001339BB29C4204D9EA181649525C53
:10394800FF2AF6D09C4211D8224649463046FFF756
:1039580087FFA7421ED008F101082644A1443F1B57
:10396800BFB2B7F5805FD7D83C46D7E74046FFF7E8
:1039780097FF002305E05919F05C074A8854013382
:103988009BB29C42F7D84FF4805251460248FFF749
:1039980067FFDEE7BDE8F0876C18002010B5044625
:1039A8000E4B18784FF47A73B3FBF0F30C4A106897
:1039B800B0FBF3F000F090F868B90F2C01D90120A2
:1039C8000AE0002221464FF0FF3000F043F8054B93
:1039D8001C60002000E0012010BD00BF820800200C
:1039E8007C0800208408002008B5074A136843F0C3
:1039F80010031360032000F01BF80020FFF7CEFF30
:103A0800FFF76CFC002008BD00200240034A116843
:103A1800034B1B780B441360704700BF6C280020D1
:103A280082080020014B1868704700BF6C280020EE
:103A3800074AD36823F4E0631B041B0C000200F45C
:103A4800E060034343F0BF6343F40033D36070473F
:103A580000ED00E030B4174BDB68C3F30223C3F179
:103A68000704042C28BF04241D1D062D18D9033B68
:103A78004FF0FF3505FA04F421EA0401994005FAEC
:103A880003F322EA0303194300280BDB0901C9B237
:103A980000F1604000F5614080F8001330BC7047C9
:103AA8000023E5E700F00F000901C9B2024B1954E1
:103AB800F4E700BF00ED00E014ED00E0002807DBAC
:103AC80000F01F02400901239340024A42F82030C7
:103AD800704700BF00E100E00138B0F1807F0AD2F2
:103AE800064B5860064AF02182F82310002098609F
:103AF80007221A6070470120704700BF10E000E0FD
:103B080000ED00E0042805D0054A136823F00403FB
:103B180013607047024A136843F004031360704748
:103B280010E000E0F0B482B000252C46ABE0854FF1
:103B3800BB4210D007D9844FBB420CD007F5803761
:103B4800BB4208D013E0A7F58017BB4203D007F5A6
:103B58007027BB4207D18B68002B60D0012B59D04E
:103B68004261082503E0A7F58017BB42F3D0FF2E7A
:103B780057D88446FF2E57D8A200DCF800300F270C
:103B8800974023EA070305FA02F21343CCF8003002
:103B98004B6813F0805F75D06C4B9A6942F0010254
:103BA8009A619B6903F001030193019BA208971C8A
:103BB800674B53F827C004F003039F000F23BB4053
:103BC8002CEA030C634B984234D003F58063984287
:103BD80000F0948003F58063984200F0918003F52B
:103BE8008063984200F08E8003F58063984200F06D
:103BF8008B8003F5806398421AD006231BE0CD68BA
:103C0800B5E7CD680435B2E7CD680835AFE7CD68CC
:103C18000C35ACE702610825A9E70025A7E70425CC
:103C2800A5E700F1040CA5E7A4F108029200A4E7B7
:103C3800052300E00023BB4043EA0C030232444F53
:103C480047F822304B6813F4803F5FD0424A13682C
:103C5800334313604B6813F4003F5DD03E4A53680A
:103C6800334353604B6813F4801F5BD03A4A936820
:103C7800334393604B6813F4001F59D0364AD36816
:103C88001E43D66001340B6833FA04F256D0012281
:103C9800A24003EA020632EA0303F3D14B68122B6F
:103CA8003FF645AF122B3FF662AF01A757F823F056
:103CB8005F3B0008073C0008113C0008233C000853
:103CC800773B0008773B0008773B0008773B000804
:103CD800773B0008773B0008773B0008773B0008F4
:103CE800773B0008773B0008773B0008773B0008E4
:103CF800773B00080B3C0008173C000801239AE7B3
:103D0800022398E7032396E7042394E7124A1368EB
:103D180023EA060313609DE70F4A536823EA060364
:103D280053609FE70C4A936823EA06039360A1E770
:103D3800094AD36823EA0606D660A3E702B0F0BCB6
:103D4800704700BF00002210000031100010024030
:103D58000000014000080140000401400AB101616F
:103D68007047090401617047014B01221A607047CE
:103D780020000E4282B0084B1B68084AA2FB0323AE
:103D88005B0A00FB03F3019300BF019B5A1E0192DB
:103D9800002BF9D102B070477C080020D34D621087
:103DA800002800F0F18170B582B00446036813F072
:103DB800010F2CD0AA4B5B6803F00C03042B1DD019
:103DC800A74B5B6803F00C03082B12D06368B3F5AC
:103DD800803F41D0002B55D103F1804303F50433D4
:103DE8001A6822F480321A601A6822F480221A6053
:103DF80037E09B4B5B6813F4803FE7D0984B1B6818
:103E080013F4003F03D06368002B00F0BF812368E0
:103E180013F0020F75D0924B5B6813F00C0F5FD054
:103E28008F4B5B6803F00C03082B54D02369002BDD
:103E380000F089808B4B01221A60FFF7F3FD0546DD
:103E4800874B1B6813F0020F74D1FFF7EBFD401B83
:103E58000228F5D903209EE1814A136843F4803390
:103E68001360636843B3FFF7DDFD05467C4B1B68B1
:103E780013F4003FCBD1FFF7D5FD401B6428F5D9DB
:103E8800032088E1B3F5A02F09D0754B1A6822F4F6
:103E980080321A601A6822F480221A60E1E703F17E
:103EA8008043A3F53C331A6842F480221A601A68EA
:103EB80042F480321A60D4E7FFF7B4FD0546684B38
:103EC8001B6813F4003FA2D0FFF7ACFD401B642829
:103ED800F5D903205FE1624B5B6813F4803FA5D1FD
:103EE8005F4B1B6813F0020F03D02369012B40F0CE
:103EF8004F815B4A136823F0F803616943EAC10301
:103F08001360236813F0080F32D0A369002B45D043
:103F1800554B01221A60FFF785FD0546504B5B6A39
:103F280013F0020F21D1FFF77DFD401B0228F5D9C0
:103F3800032030E14A4A136823F0F803616943EA31
:103F4800C1031360DDE7474B00221A60FFF76AFDE3
:103F58000546434B1B6813F0020FD2D0FFF762FDF2
:103F6800401B0228F5D9032015E10120FFF702FFC5
:103F7800236813F0040F00F09780394BDB6913F0C6
:103F8800805F1DD1364BDA6942F08052DA61DB6915
:103F980003F080530193019B012512E0324B00226C
:103FA8001A60FFF73FFD05462D4B5B6A13F0020FC1
:103FB800DED0FFF737FD401B0228F5D90320EAE0E1
:103FC80000252A4B1B6813F4807F11D0E368012B6E
:103FD80022D0002B38D103F1804303F504331A6A49
:103FE80022F001021A621A6A22F004021A6218E028
:103FF8001E4A136843F480731360FFF713FD0646E7
:104008001A4B1B6813F4807FE0D1FFF70BFD801B70
:104018006428F5D90320BEE0114A136A43F001036E
:104028001362E36873B3FFF7FDFC06460C4B1B6A8B
:1040380013F0020F37D1FFF7F5FC801B41F28833EC
:104048009842F3D90320A6E0052B11D0044B1A6A35
:1040580022F001021A621A6A22F004021A62E0E7E8
:1040680000100240000042428004424200700040BA
:104078004D4B1A6A42F004021A621A6A42F00102AF
:104088001A62CEE7FFF7CEFC0646474B1B6A13F0D1
:10409800020F08D0FFF7C6FC801B41F28833984214
:1040A800F3D9032077E0E5B9E369002B72D03E4AE3
:1040B800526802F00C02082A56D0022B17D03B4B4C
:1040C80000221A60FFF7AEFC0446374B1B6813F05A
:1040D800007F47D0FFF7A6FC001B0228F5D9032074
:1040E80059E0314AD36923F08053D361DCE72F4B81
:1040F80000221A60FFF796FC05462B4B1B6813F04D
:10410800007F06D0FFF78EFC401B0228F5D903205C
:1041180041E0236AB3F5803F1AD023494B6823F462
:104128007413226A606A024313434B601F4B0122D7
:104138001A60FFF777FC04461B4B1B6813F0007FDF
:104148000ED1FFF76FFC001B0228F5D9032022E0EF
:10415800154A536823F40033A1680B435360DCE726
:10416800002018E0002016E0012B16D00E4B5B68EB
:1041780003F48031226A914211D103F47013626A08
:1041880093420ED1002006E001207047012002E092
:10419800012000E0002002B070BD0120FBE70120F3
:1041A800F9E70120F7E700BF001002406000424233
:1041B800014B01221A6070474C00424286B0164BF0
:1041C8000FCB0DF1180C0CE90F0040F20123ADF8EC
:1041D8000430124B5B6803F00C02082A02D0104826
:1041E80006B07047C3F38342624412F8102C13F4EC
:1041F800803F0CD0094B5B68C3F34043634413F81A
:10420800143C074800FB02F0B0FBF3F0E8E7054870
:1042180000FB02F0E4E700BF50BB000800100240BA
:1042280000127A0000093D00002800F0A08070B557
:104238000D460446524B1B6803F007038B420BD212
:104248004F4A136823F007030B431360136803F006
:1042580007038B4240F08D80236813F0020F17D0BC
:1042680013F0040F04D0474A536843F4E0635360E3
:10427800236813F0080F04D0424A536843F460538C
:104288005360404A536823F0F003A1680B4353601E
:10429800236813F0010F31D06368012B20D0022B63
:1042A80025D0384A126812F0020F64D035494A689E
:1042B80022F0030213434B60FFF7B4FB0646314B71
:1042C8005B6803F00C036268B3EB820F16D0FFF74C
:1042D800A9FB801B41F288339842F0D9032045E0BE
:1042E800284A126812F4003FE0D101203EE0254A36
:1042F800126812F0007FD9D1012037E0204B1B68EB
:1043080003F00703AB420AD91D4A136823F00703D9
:104318002B431360136803F00703AB422DD12368C6
:1043280013F0040F06D0174A536823F4E063E168DA
:104338000B435360236813F0080F07D0114A5368E2
:1043480023F46053216943EAC1035360FFF736FF42
:104358000C4B5B68C3F303130B4AD35CD8400B4B7D
:1043680018600B4B1868FFF719FB002070BD01207F
:1043780070470120FAE70120F8E70120F6E700BFBF
:104388000020024000100240ECBA00087C0800201F
:1043980084080020014B1868704700BF7C08002083
:1043A80008B5FFF7F7FF044B5B68C3F30223034A22
:1043B800D35CD84008BD00BF00100240FCBA00081A
:1043C80008B5FFF7E7FF044B5B68C3F3C223034A52
:1043D800D35CD84008BD00BF00100240FCBA0008FA
:1043E8007047000008B5064B9B6813F0800F00D19A
:1043F80008BDFFF7F5FF034B80221A70F8E700BFEE
:10440800001002400A10024070B582B004460368EA
:1044180013F0010F34D03E4BDB6913F0805F47D1B6
:104428003B4BDA6942F08052DA61DB6903F0805372
:104438000193019B0125374B1B6813F4807F39D00A
:10444800334B1B6A13F4407311D0626802F4407254
:104458009A420CD02E4A136A23F440702E49012642
:104468000E6000260E60106213F0010F36D1284A44
:10447800136A23F4407361680B431362002D3ED125
:10448800236813F0020F06D0214A536823F44043EF
:10449800A1680B435360236813F0100F34D01C4AF3
:1044A800536823F4800361690B43536000202CE0B8
:1044B8000025C0E7174A136843F480731360FFF7B9
:1044C800B1FA0646134B1B6813F4807FB8D1FFF787
:1044D800A9FA801B6428F5D9032016E0FFF7A2FA91
:1044E80006460B4B1B6A13F0020FC0D1FFF79AFA6E
:1044F800801B41F288339842F3D9032005E0D36941
:1045080023F08053D361BBE7002002B070BD00BF29
:1045180000100240007000404004424210B586B0CE
:1045280004463D4B0FCB0DF1180C0CE90F0040F27F
:104538000123ADF80430601E0F2866D8DFE800F0CC
:10454800385A65326565653565656565656565080B
:10455800324B5A68186810F0807057D0C2F3834302
:1045680006A90B4413F8100C12F4803F16D02B4BFD
:104578005B68C3F340430B4413F8142C284BB3FB7C
:10458800F2F300FB03F0254B5B6813F4800F3DD179
:104598004000244BA3FB0030400837E0224B03FBCC
:1045A80000F0F0E7FFF70AFE30E0FFF707FE2DE026
:1045B8001A4B1B6A40F202321A40B2F5817F27D0AB
:1045C80003F44073B3F5007F04D0B3F5407F09D0FE
:1045D80000201BE0114A526A12F0020FF5D049F68A
:1045E800404013E00D4B186810F400300ED04FF225
:1045F80024400BE0FFF7E4FE084B5B68C3F381330C
:1046080001335B00B0FBF3F000E0002006B010BD02
:104618004FF40040FAE700BF50BB0008001002400A
:1046280000127A00ABAAAAAA00093D0038B50446D0
:10463800FFF7F8F9054623685A6812F0200F07D1EA
:10464800FFF7F0F9401BB0F57A7FF4D9032004E0B6
:104658005A6842F010025A60002038BD38B5044646
:104668000268536823F010035360FFF7DBF905462F
:1046780023685B6813F0200F07D1FFF7D3F9401BBD
:10468800B0F57A7FF4D9032000E0002038BDC0B12E
:1046980038B505460268536823F008035360FFF7EE
:1046A800C1F904462B685B6813F0080F07D1FFF7C0
:1046B800B9F9001BB0F57A7FF4D9032000E0002097
:1046C80038BD012070470000002857D010B50446B7
:1046D800437C4BB1022363742046FFF7D8FF38B1FF
:1046E80004236374012010BD0374FEF7A5FCF1E7F1
:1046F8002046FFF79BFF60BB2268536823F007033F
:104708005360A36823B11E4A136B23F0010313639C
:104718001B4AD36A23F46073A1680B43D3626268AF
:10472800B2F1FF3F19D021688B6823F00F0343EAE9
:1047380012438B602168CB681B0C1B0492B2134395
:10474800CB602046FFF78AFF88B1042363740120F9
:10475800C9E7042363740120C5E70120FFF7DEFEE3
:1047680008B1421EDFE7042363740120BBE700237E
:10477800E37301236373A3736374B4E70120704781
:10478800006C00402DE9F04782B005468846174680
:104798001E46FFF747F90A9B1B1A03EB0609FFF7AA
:1047A80041F982462A4B1B68C3F3CB3309FB03F359
:1047B80001932B689C6838EA04030CBF0124002489
:1047C800BC4240D0B6F1FF3FF3D0FFF72BF9A0EB86
:1047D8000A0048450AD2B9F1000F07D0019A02B180
:1047E8004A46019B013B01939146E2E72A685368D8
:1047F80023F0E00353606B68B3F5827F0BD0AB6A9C
:10480800B3F5005F14D0012385F85130002385F8F3
:104818005030032018E0AB68B3F5004F02D0B3F571
:10482800806FECD12A68136823F040031360E6E731
:104838002A68136823F4005313602A68136843F442
:1048480000531360DFE7002002B0BDE8F08700BF27
:104858007C08002010B582B004460B460092002266
:104868008021FFF78FFF08B902B010BD636D43F0D8
:10487800200363650320F7E7002856D010B50446E7
:10488800436A33B94368B3F5827F05D00023C36117
:1048980002E00023036143610023A36294F85130CE
:1048A800002B3CD0022384F851302268136823F08F
:1048B80040031360636803F48273A26802F404423D
:1048C8001343E26802F400621343226902F0020211
:1048D8001343626902F001021343A26902F40072F1
:1048E8001343E26902F038021343226A02F080029D
:1048F8001343A26A02F40052216813430B60638BCE
:10490800226803F0040353602268D36923F4006328
:10491800D36100206065012384F8513010BD84F80C
:1049280050302046FEF714FCBCE7012070472DE903
:10493800F04383B01F460A9D90F85030012B00F0D9
:104948001081044688469146012380F85030FFF7CD
:1049580069F8064694F85130DBB26268012B0AD038
:10496800B2F5827F40F0E380A268002A40F0E98037
:10497800042B40F0E880B8F1000F00F0E680B9F1B0
:10498800000F00F0E480002F00F0E38094F851302D
:10499800DBB2042B02D0052384F851300023636571
:1049A800C4F83890E787A787C4F83080E786A786D9
:1049B8002364636423681A6812F0400F03D11A68ED
:1049C80042F040021A60E368B3F5006F11D06368E3
:1049D8000BB1012F0BD1226B236812781A73236B4A
:1049E80001332363E38E9BB2013B9BB2E38601272D
:1049F8006BE063680BB1012F0BD1226B236812881F
:104A0800DA60236B02332363E38E9BB2013B9BB2D4
:104A1800E38601271CE023689A6812F0010F0ED084
:104A2800E28F92B25AB1DA68A36B1A80A36B023391
:104A3800A363E38F9BB2013B9BB2E3870127FEF799
:104A4800F1FF801BA84203D3B5F1FF3F40F08380FC
:104A5800E38E9BB21BB9E38F9BB2002B53D0236824
:104A68009A6812F0020FD6D0E28E92B2002AD2D003
:104A7800002FD0D0226B1288DA60236B02332363B5
:104A8800E38E9BB2013B9BB2E3860027C3E7236812
:104A98009A6812F0010F0ED0E28F92B25AB1DA681A
:104AA800A36B1A70A36B0133A363E38F9BB2013B23
:104AB8009BB2E3870127FEF7B5FF831BAB4202D306
:104AC800B5F1FF3F49D1002D49D0E38E9BB213B910
:104AD800E38F9BB2BBB123689A6812F0020FD6D05D
:104AE800E28E92B2002AD2D0002FD0D0226B127858
:104AF8001A73236B01332363E38E9BB2013B9BB292
:104B0800E3860027C3E7324629462046FFF7A2FE80
:104B180048B9A36863B901932368DA6801929B686E
:104B28000193019B04E020236365012000E002203B
:104B3800012384F85130002384F8503003B0BDE8D5
:104B4800F0830220F4E70220F2E70120F0E70120D9
:104B5800EEE70120ECE70320EAE70320E8E703207B
:104B6800E6E70220EAE730B4056A25F01005056299
:104B78008469056A24F4407444EA022424F47044E5
:104B88001B039BB2234325F0A005090101F0A001F6
:104B980029438361016230BC704730B4056A25F44B
:104BA80080750562C469056A24F00304144324F07F
:104BB800F0041B01DBB2234325F40075090201F45C
:104BC80000712943C361016230BC704730B4056A83
:104BD80025F480550562C469056A24F4407444EAE2
:104BE800022424F470441B039BB2234325F400558C
:104BF800090301F400512943C361016230BC7047C5
:104C08000C2914D8DFE801F0071313130A13131340
:104C18000D13131310000368586B70470368986BE3
:104C280070470368D86B70470368186C704700209A
:104C3800704770477047704710B5044603681A6993
:104C480012F0020F11D0DA6812F0020F0DD06FF0D7
:104C580002021A610123037703689B6913F0030FAB
:104C680070D0FEF7B7F80023237723681A6912F08B
:104C7800040F12D0DA6812F0040F0ED06FF004029D
:104C88001A610223237723689B6913F4407F5FD05E
:104C98002046FEF79FF80023237723681A6912F04D
:104CA800080F12D0DA6812F0080F0ED06FF0080261
:104CB8001A61042323772368DB6913F0030F4ED0AE
:104CC8002046FEF787F80023237723681A6912F035
:104CD800100F12D0DA6812F0100F0ED06FF0100219
:104CE8001A61082323772368DB6913F4407F3DD0DA
:104CF8002046FEF76FF80023237723681A6912F01D
:104D0800010F03D0DA6812F0010F36D123681A694F
:104D180012F0800F03D0DA6812F0800F34D12368C4
:104D28001A6912F0400F03D0DA6812F0400F32D13E
:104D380023681A6912F0200F03D0DA6812F0200FE6
:104D480030D110BDFFF775FF2046FFF773FF8AE7E4
:104D58002046FFF76EFF2046FFF76CFF9BE72046D3
:104D6800FFF767FF2046FFF765FFACE72046FFF730
:104D780060FF2046FFF75EFFBDE76FF001021A6192
:104D88002046FDF7FFFFC1E76FF080021A61204659
:104D980000F0D9F9C3E76FF040021A612046FFF727
:104DA8004AFFC5E76FF020021A61204600F0CAF9F1
:104DB800C7E700000368244A904212D002F5006257
:104DC80090420ED0B0F1804F0BD0A2F598329042AD
:104DD80007D002F58062904203D002F580629042CB
:104DE80003D123F070034A681343174A904212D044
:104DF80002F5006290420ED0B0F1804F0BD0A2F5C0
:104E08009832904207D002F58062904203D002F5B2
:104E18008062904203D123F44073CA68134323F09D
:104E280080034A69134303608B68C3620B6883621B
:104E3800054B984203D003F50063984201D10B69F2
:104E48000363012343617047002C014040B310B550
:104E5800044690F83D30F3B1022384F83D302146F2
:104E680051F8040BFFF7A6FF012384F8463084F8B5
:104E78003E3084F83F3084F8403084F8413084F87C
:104E8800423084F8433084F8443084F8453084F85C
:104E98003D30002010BD80F83C30FDF73BFFDBE7DC
:104EA8000120704770B4046A24F001040462846924
:104EB800066A154DA84215D005F50065A84211D01F
:104EC800B0F1804F0ED0A5F59835A8420AD005F567
:104ED8008065A84206D005F58065A84202D044F056
:104EE800010202E024F00304224322F0F0021B0135
:104EF800DBB2134326F00A0201F00A011143836171
:104F0800016270BC704700BF002C014038B590F8B2
:104F18003C30012B52D004460D46012380F83C302A
:104F2800C2B1042A27D0082A37D0CB684A68096852
:104F38000068FFF74BFE2268D36923F44063D3610E
:104F48002268D369A96843EA0123D361002084F861
:104F58003C0038BDCB684A6809680068FFF7A2FFC3
:104F68002268936923F00C03936122689369A96806
:104F78000B439361EAE7CB684A6809680068FFF762
:104F8800F2FD2268936923F4406393612268936970
:104F9800A96843EA01239361D8E7CB684A6809689E
:104FA8000068FFF7FAFD2268D36923F00C03D36188
:104FB8002268D369A9680B43D361C7E70220C8E711
:104FC80010B401F01F01012303FA01F4036A23EA74
:104FD80004030362036A02FA01F10B43036210BC83
:104FE8007047000010B504460B4601BB90F83E0020
:104FF800C0B263BB94F84220D2B2012840F09B8033
:10500800012A40F0998093BB022284F83E20002BAD
:105018003DD1022284F842200C2B4DD8DFE803F062
:10502800474C4C4C6E4C4C4C744C4C4C7A000429FC
:1050380005D0082907D090F84100C0B2D9E790F808
:105048003F00C0B2D5E790F84000C0B2D1E7042BCA
:1050580005D0082B07D094F84520D2B2CDE794F8B4
:105068004320D2B2C9E794F84420D2B2C5E7042B52
:1050780005D0082B07D0022284F84120C7E7022276
:1050880084F83F20C3E7022284F84020BFE7042BBE
:1050980005D0082B07D0022284F84520BCE702225D
:1050A80084F84320B8E7022284F84420B4E7216852
:1050B800CA6842F00202CA60012219462068FFF756
:1050C8007FFF23681E4A93422AD002F5006293426A
:1050D80026D0B3F1804F23D0A2F5983293421FD047
:1050E80002F5806293421BD002F58062934217D08A
:1050F8001A6842F001021A6000201DE02168CA689F
:1051080042F00402CA60D7E72168CA6842F0080280
:10511800CA60D1E72168CA6842F01002CA60CBE7CA
:105128009A6802F00702062A07D01A6842F00102BC
:105138001A60002000E0012010BD0020FCE700BF3D
:10514800002C01407047704710B504460268136987
:1051580023F44053C1680B43136183680269134306
:1051680042691A430168CB6823F4B05323F00C0357
:105178001343CB600268536923F4407381690B437E
:1051880053610268124B9A421FD0FFF709F900EBEE
:10519800800303EB830362689200B3FBF2F20D48CD
:1051A800A0FB02314909642303FB11231B0132339D
:1051B800A0FB03235B0903F0F00202EB011203F0EA
:1051C8000F03216813448B6010BDFFF7F9F8DEE781
:1051D800003801401F85EB512DE9F84305460F467D
:1051E80016469946DDF820802C68246837EA0403BF
:1051F8000CBF01240024B4421FD1B8F1FF3FF3D003
:10520800B8F1000F05D0FEF70DFCA0EB09004045F2
:10521800EAD92A68D36823F4D073D3602A6853691B
:1052280023F001035361202385F8393085F83A309B
:10523800002385F83830032000E00020BDE8F8831B
:1052480058B310B5044690F839300BB3242384F8CA
:1052580039302268D36823F40053D3602046FFF71F
:1052680073FF2268136923F490431361226853691A
:1052780023F02A0353612268D36843F40053D360B0
:105288000020E063202384F8393084F83A3010BDD8
:1052980080F83830FEF7B8F8D8E7012070472DE9D4
:1052A800F04182B01E4690F83930DBB2202B54D141
:1052B80004460D469046002953D0002A53D090F852
:1052C8003830012B51D0012380F838300023C363D4
:1052D800212380F83930FEF7A5FB0746A4F824807F
:1052E800A4F82680A368B3F5805F05D04FF00008C6
:1052F800002384F8383012E0236913B14FF0000816
:10530800F6E7A8460025F3E738F8023B2268C3F31E
:1053180008035360E28C92B2013A92B2E284E38CC1
:105328009BB273B100963B46002280212046FFF7CE
:1053380053FFE0B9002DE7D015F8012B23685A6018
:10534800E8E700963B46002240212046FFF744FF4D
:1053580078B9202384F8393000E0022002B0BDE893
:10536800F0810120FAE70120F8E70220F6E70320A0
:10537800F4E70320F2E72DE9F04182B01E4690F8E9
:105388003A30DBB2202B5BD104460D46904600290B
:105398005AD0002A5AD090F83830012B58D001231F
:1053A80080F838300023C363222380F83A30FEF7B0
:1053B80039FB0746A4F82C80A4F82E80A368B3F51F
:1053C800805F05D04FF00008002384F8383017E0DC
:1053D800236913B14FF00008F6E7A8460025F3E764
:1053E80023685B68C3F3080328F8023B03E02368DB
:1053F8005B682B700135E28D92B2013A92B2E28578
:10540800E38D9BB2BBB100963B460022202120468B
:10541800FFF7E2FEF0B9002DE2D0A368B3F5805F94
:10542800E5D013B92369002BE1D023685B6803F04A
:105438007F032B70DEE7202384F83A30002000E059
:10544800022002B0BDE8F0810120FAE70120F8E768
:105458000220F6E70320F4E7002103E00B4B5B583A
:10546800435004310A480B4B42189A42F6D30A4A71
:1054780002E0002342F8043B084B9A42F9D3FDF7B7
:105488008DFF00F015F8FCF7A3F8704774BF00080B
:10549800000000203812002038120020CC280020FC
:1054A800FEE70000014B1868704700BF880800201D
:1054B80070B50D4E0D4D761BB61006D0002455F86C
:1054C800043B01349847A642F9D1094E094D06F02C
:1054D800FDF8761BB61006D0002455F8043B0134BD
:1054E8009847A642F9D170BD68BF000868BF000898
:1054F80070BF000868BF0008F0B4860746D0541E85
:10550800002A3CD00346CAB201E0013C37D303F875
:10551800012B9D07F9D1032C2AD9CDB245EA0525DF
:105528000F2C45EA054534D9A4F1100222F00F0CDE
:1055380003F120071609674403F1100242E90455F4
:1055480042E902551032BA42F8D1721C14F00C0F1D
:1055580003EB021204F00F0613D0331F23F00303EA
:105568000433134442F8045B9342FBD106F003046E
:105578002CB1CAB21C4403F8012B9C42FBD1F0BCED
:10558800704734461346002CF3D1F8E71446034617
:10559800C1E71A462646E0E70FB400B5074983B0CD
:1055A80004AB086853F8042B8168019300F05CF998
:1055B80003B05DF804EB04B0704700BF8808002012
:1055C800F0B5054689B008460C46012700F01EF9DB
:1055D80002262149AA6B059004AB38440494039031
:1055E800AC68079702960691019322B3636E13F095
:1055F800010FB4F90C309AB201D1980525D5910460
:1056080006D4626E43F4005322F40052A38162660A
:10561800284601AA214603F07DFA636E002814BFCC
:105628004FF0FF350A25DA0702D4A3899B0506D572
:10563800284609B0F0BD284603F0C6F8D6E7A06DA5
:1056480003F00CFC284609B0F0BDA06D03F004FC83
:10565800B4F90C309AB2D2E710BB0008024B0146ED
:105668001868FFF7ADBF00BF880800202DE9F04398
:10567800654D0446D5F800900F4690461E4683B007
:10568800B9F1000F03D0D9F83830002B79D0B8F130
:10569800020F06D0B8F1010F00F2A380002EC0F26D
:1056A800A080636ED90752D52146484603F030F8EA
:1056B800216B41B104F14003994202D0484603F0FE
:1056C80023F9002323630023B4F90C50A36163601A
:1056D8002B0665D425F44A6525F00305B8F1020FB9
:1056E800A58164D001AB6A462146484603F0B8FB61
:1056F800A3891843A081002E30D0002F2FD0D9F8CD
:105708003830002B39D0009BC4E90476B342B4F991
:105718000C3027601CBF43F40063A381B8F1010F6C
:1057280004BF43F00103A3819AB213F008032CD0FD
:10573800D10754D500217642A661666EA16016F0A5
:10574800010627D00026304603B0BDE8F083A389C0
:105758009A05A9D4A06D03F07FFBA5E7009E30460B
:1057680003F0F6FB074600283ED0A38943F08003E8
:10577800A381D9F83830002BC5D1484603F024F866
:10578800C1E7484603F020F881E7A360666E16F08B
:105798000106D7D193051BD5304603B0BDE8F08389
:1057A8004846216903F0B0F8B4F90C5092E7002696
:1057B80000230121626E45F00205A360D70704F1BA
:1057C8004303A581616123602361E5D4A805E3D47F
:1057D800A06D03F043FB304603B0BDE8F083A6603C
:1057E800D4E74FF0FF36D7E7009DB54204D02846EE
:1057F80003F0AEFB074620B94FF0FF36B4F90C5062
:10580800D6E72E46B1E700BF8808002020F0030144
:1058180010F00300C0F1000051F8043B00F1040C43
:105828004FEACC0C6FF000021CBF22FA0CF21343B3
:105838004FF0010C4CEA0C2C4CEA0C4CA3EB0C027C
:1058480022EA030212EACC1204BF51F8043B0430E6
:10585800F4D0C2F1000102EA0102B2FA82F2C2F106
:105868001F0200EBD20070472DE9F04FD7B01C465D
:105878008B461746814603F0E7FA03680E941846EC
:105888001893FFF7C3FF1790B9F1000F04D0D9F8A8
:105898003830002B00F0EA81DBF8643013F0010F98
:1058A800BBF90C309AB202D19D0540F1B58690043F
:1058B8000AD4DBF8642043F4005322F40051ABF817
:1058C8000C309AB2CBF86410110740F1BB80DBF8BA
:1058D8001030002B00F0B68002F01A030A2B00F0FB
:1058E800BF80002300210022CDE92B33CDE91A33F4
:1058F800CDE91C33139319930A932DAB98462A9339
:105908003B78DA46CDE91412002B00F060813C4662
:1059180004E014F8013F002B00F0B980252BF8D1E2
:10592800E51B40F0B7802378002B00F0508100235E
:105938000B938DF88B3007934FF0FF33667804F1A3
:10594800010B20212B2409930BF1010BA6F1200355
:105958005A2B00F2BB80DFE813F0EA02B900B90065
:10596800E302B900B900B900BF02B900B9006A0082
:105978005202B90033025E02B90057025B005B00B5
:105988005B005B005B005B005B005B005B00B900D9
:10599800B900B900B900B900B900B9004201B900AD
:1059A800C1019401420142014201B900B900B900A4
:1059B800B900AF02B900B900FB01B900B900B900DC
:1059C800D501B9007802B900B900B707B900B90024
:1059D800B900B900B900B900B900B9004201B9006D
:1059E800C1019801420142014201A50298018D01BD
:1059F800B9009B02B9003A02FF0189028D01B90082
:105A0800D50172009207B900B9009607B900720073
:105A18000022A6F130031BF8016B02EB820203EBB4
:105A28004202A6F13003092BF5D90B928EE70E9BA3
:105A380053F8042B002A0B920E93C0F2BE819BF8F8
:105A4800006081E75946484601F05EFD002841F0B4
:105A58009B83BBF80C2002F01A030A2B7FF441AF9A
:105A6800BBF90E30002BFFF63CAFDBF86430DE07E5
:105A780002D4950541F1808123463A465946484665
:105A880001F0FEFC0A900A9857B0BDE8F08FE51BBC
:105A980000F09D80DDE92B3201332A44072BC8E949
:105AA8000075CDE92B3206DC08F108080A9A23783C
:105AB8002A440A9238E7514648462AAA04F020FCAC
:105AC800002841F00E840DF1B408EFE7002E7ED0D7
